:100000000C94011B0C94321B0C94321B0C94321B6D
:100010000C94321B0C94321B0C94321B0C94321B2C
:100020000C94321B0C94321B0C94321B0C94321B1C
:100030000C94321B0C9469B70C94321B0C94321B39
:100040000C94321B0C94F8290C94321B0C94321B28
:100050000C94321B0C94321B0C94A3280C941EC3DA
:100060000C94321B0C94B4750C945E620C94321B8D
:100070000C94321B0C94321B0C94321B0C94321BCC
:100080000C94321B0C94321B0C94321B0C94321BBC
:100090000C94321B0C94321B0C94321B0C94321BAC
:1000A0000C94321B0C94321B0C94321B0C94321B9C
:1000B0000C94321B0C94321B0C94321B0C94321B8C
:1000C0000C94321B0C94321B0C94321B0C94321B7C
:1000D0000C94321B0C94321B0C94AC3E0C94763E68
:1000E0000C94321B0C94E5C20C94CBB80C9469C1EF
:1000F0000C9457BB0C94C1B80C94CCBF0C943676BE
:100100000C945C760C942EC20C94AB9C0C94607690
:100110000C9427760C947E9C0C94829C0C948B9C63
:100120000C94F6750C94BBC10C945CBF0C94B19C00
:100130000C948F9C0C949DBF0C943CBB0C9471BB95
:100140000C94DAC20C949D9C0C9454760C9464BC70
:100150000C94B59C0C94EABB0C946AC20C94769CEB
:100160000C9455C20C9421BB0C94D5B80C94AFB828
:100170000C9451BE0C949DB80C9447C20C94709C86
:100180000C9480BB0C94D0C10C9467D40C94B7BE73
:100190000C9440C20C947A9C0C9445760C94647632
:1001A0000C9493B80C94859C0C9476760C944EC267
:1001B0000C9492C10C947CB80C9466BB0C944BCC00
:1001C0000C94E4B80C941CBE0C94F8B80C9488BD44
:1001D0000C9416B90C942DBC0C945CC20C94B7B85A
:1001E0000C9492BF0C9458BE0C9484B80C94999CB7
:1001F0000C94B09C0C9439C20C9450760C940CB9AD
:100200000C944C760C94A39C0C940FC00C946B76BD
:100210000C94A7B80C94EEB80C94C7BD0C9463C2B0
:100220000C9402B90C94ECBE0C94A8BB0C945876B8
:100230000C947E760C94A79C0C9434BF0C94959CE3
:100240000C9489B84E414E494E495459494E46CDB9
:10025000CCCC3D0AD7233C17B7D13877CC2B32957D
:1002600095E6241FB14F0A000020410000C842005B
:10027000401C4620BCBE4CCA1B0E5AAEC59D7443E2
:100280004F4D4D554E49434154494F4E00445259EC
:1002900052554E004552524F525300494E464F0060
:1002A0004543484F00554E4B4E4F574E20535441F7
:1002B00054450047434F44455F494E464F004C4329
:1002C000445F50415553455F524553554D45004697
:1002D000494C414D454E545F52554E4F55545F4326
:1002E0004F4E54494E55450046494C414D454E549C
:1002F0005F52554E4F5554004D3837362052657376
:10030000706F6E64696E672050524F4D50545F009D
:100310004572726F722077726974696E6720746FAC
:1003200020454550524F4D210A00363726032B3CBD
:100330003D382A2E303E1224221E1A1C180A2C4345
:100340000809072C070844000153544F50504544F6
:100350002E20005072696E7465722073746F707015
:1003600065642064756520746F206572726F7273A6
:100370002E2046697820746865206572726F72203D
:10038000616E6420757365204D39393920746F2092
:10039000726573746172742E202854656D70657275
:1003A00061747572652069732072657365742E209F
:1003B0005365742069742061667465722072657378
:1003C00074617274696E67290A004E6F2043686514
:1003D000636B73756D2077697468206C696E652036
:1003E0006E756D6265722C204C617374204C696E61
:1003F000653A20004E6F20436865636B73756D200E
:1004000077697468206C696E65206E756D626572BF
:100410002C204C617374204C696E653A200063682F
:1004200065636B73756D206D69736D617463682CA2
:10043000204C617374204C696E653A20004C696EE3
:1004400065204E756D626572206973206E6F742031
:100450004C617374204C696E65204E756D626572D7
:100460002B312C204C617374204C696E653A20004E
:100470004D313130005344207265616420657272E1
:100480006F720A002121204B494C4C206361757327
:10049000656420627920746F6F206D7563682069D0
:1004A0006E6163746976652074696D65202D2063C3
:1004B000757272656E7420636F6D6D616E643A2043
:1004C00000627573793A2070617573656420666F98
:1004D0007220696E7075740A00627573793A2070C3
:1004E000617573656420666F7220757365720A00AA
:1004F000627573793A2070726F63657373696E67A2
:100500000A005446542053657269616C2044656248
:1005100075673A204F6E2053442043617264204532
:1005200072726F72202E2E2E204A32310A004A3209
:1005300031005446542053657269616C20446562F1
:1005400075673A204F6E5344436172644572726F0F
:1005500072206576656E742074726967676572656E
:10056000642E2E2E0A004D6564696120496E736504
:1005700072746564004D656469612052656D6F76C3
:10058000656400706175736500544654205365724C
:1005900069616C2044656275673A2046696C616DDB
:1005A000656E7452756E6F757420747269676765D5
:1005B0007265642E2E2E0A004D363030002066699A
:1005C0006C616D656E745F72756E6F757420006618
:1005D000696C616D656E745F72756E6F75742054B1
:1005E0000046696C616D656E7452756E6F7574202E
:1005F00054005446542053657269616C204465620E
:1006000075673A204B696C6C20636F6D6D616E6429
:100610002E2E2E204A31310A004A313100706F7778
:1006200065726F6666005072696E746572206861EB
:100630006C7465642E206B696C6C28292063616C76
:100640006C6564210A006563686F3A004572726FD9
:10065000723A000A4D6561737572656420706F6946
:100660006E74733A0A00357835206D6573682E20F4
:100670005A206F66667365743A20002F2F61637489
:10068000696F6E3A00626567696E00627574746FB7
:100690006E00656E640070726F6D70745F007368D9
:1006A0006F770044697361626C6552756E6F757423
:1006B0000050757267654D6F7265005061757365A6
:1006C000640070617573656400486F74656E6420C2
:1006D000746F6F20636F6C640A00506175736500FE
:1006E00053656E64204D31303820746F207265730D
:1006F000756D650A00496E736572742066696C6178
:100700006D656E7420616E642073656E64204D317A
:1007100030380A005265686561742066696E6973D5
:100720006865642E0052656865617420446F6E656B
:1007300000526568656174696E672E2E2E005265E1
:1007400068656174004865617465722054696D65FF
:100750006F75740053656E64204D31303820746FAE
:100760002068656174206E6F7A7A6C650A004E6F3E
:100770007A7A6C65205061726B656400486F7465AD
:100780006E6420746F6F20636F6C640A007265730F
:10079000756D6564004C6F61642046696C616D65C0
:1007A0006E74004C6F61642046696C616D656E7497
:1007B000205400496E736572742066696C616D65C2
:1007C0006E7420616E642073656E64204D31303824
:1007D0000A00526573756D696E67004F46460A00E0
:1007E00046616465204865696768742000426564F5
:1007F000204C6576656C696E6720004661696C65A2
:100800006420746F20656E61626C652042656420AF
:100810004C6576656C696E670A004D6573682042A9
:100820006564204C6576656C20646174613A0A00E9
:10083000496E76616C6964206D6573682E0A0020CC
:100840006E6F7420656E74657265642E0A0047329F
:100850003800206F6620004D424C2047323920700E
:100860006F696E742000290A004A206F7574206F2A
:10087000662072616E67652028302D00290A0049C4
:10088000206F7574206F662072616E676520283056
:100890002D004D6573682070726F62696E67206409
:1008A0006F6E652E0A005374617274206D657368F3
:1008B0002070726F62696E672077697468202247C2
:1008C0003239205331222066697273742E0A004730
:1008D00032380A47323920533200686173206E6F14
:1008E00020646174612E0A004D657368204265645E
:1008F000204C6576656C696E67200053206F7574B7
:10090000206F662072616E67652028302D35292E94
:100910000A0020496E76616C69642065787472758E
:100920006465722000536C6565702E2E2E004D6537
:10093000736820706F696E74206F7574206F662005
:1009400072616E67650A004D302053746F70004D00
:10095000312053746F7000436F6E74696E7565005B
:10096000436C69636B20746F20526573756D652EDF
:100970002E2E004E6F204D6F76652E00456E642042
:1009800066696C65206C6973740A00426567696EFC
:100990002066696C65206C6973740A005265737512
:1009A0006D696E6720534400286E6F2066696C6520
:1009B000290043757272656E742066696C653A2011
:1009C000005344207072696E74696E672062797496
:1009D0006520004E6F74205344207072696E7469F4
:1009E0006E670A002E0A0044656C6574696F6E209C
:1009F0006661696C65642C2046696C653A20004626
:100A0000696C652064656C657465643A0050726950
:100A10006E742074696D653A2000496E76616C6968
:100A2000642050696E204D6F64650A000A5374613A
:100A300074733A2046696C616D656E7420757365D8
:100A4000643A20002C204C6F6E67657374206A6FC7
:100A5000623A2000546F74616C2074696D653A20AD
:100A60000053746174733A20002C204661696C65F0
:100A7000643A20002C2046696E69736865643A20E8
:100A8000005072696E74733A200053746174733A43
:100A90002000436F6F6C696E672E2E2E00486561D3
:100AA00074696E672E2E2E006F6B006F666600A055
:100AB000029B0294028D027F0244454255473A0050
:100AC0004D313133205300416E7963756269632083
:100AD0006933204D656761204F46462E00434841EB
:100AE0004D4245525F54454D504552415455524533
:100AF00000424142595354455050494E47004152DB
:100B00004353004D4F54494F4E5F4D4F44455300A2
:100B1000544845524D414C5F50524F5445435449FF
:100B20004F4E004C4F4E475F46494C454E414D4558
:100B3000004155544F5245504F52545F53445F53F8
:100B40005441545553005344434152440050524F72
:100B50004D50545F535550504F525400454D4552DF
:100B600047454E43595F504152534552004341530C
:100B7000455F4C494748545F4252494748544E45A7
:100B8000535300544F47474C455F4C4947485453D3
:100B900000534F4654574152455F504F57455200FE
:100BA0004255494C445F50455243454E54004C45D4
:100BB00056454C494E475F44415441005A5F50529C
:100BC0004F42450052554E4F5554004155544F4CDD
:100BD0004556454C005052494E545F4A4F420050D2
:100BE000524F4752455353004155544F5245504F71
:100BF00052545F54454D5000564F4C554D4554523C
:100C0000494300454550524F4D0042494E415259CB
:100C10005F46494C455F5452414E5346455200533E
:100C2000455249414C5F584F4E5F584F464600462B
:100C300049524D574152455F4E414D453A4D6172C3
:100C40006C696E20322E302E362E3120284F637480
:100C500020333020323032302031353A33343A3399
:100C6000392920534F555243455F434F44455F5503
:100C7000524C3A68747470733A2F2F6769746875B0
:100C8000622E636F6D2F4D61726C696E4669726D75
:100C9000776172652F4D61726C696E2050524F54AE
:100CA0004F434F4C5F56455253494F4E3A312E31C8
:100CB0002E32204D414348494E455F545950453AE4
:100CC000416E796375626963206933204D656761A0
:100CD0002045585452554445525F434F554E543A5F
:100CE0003120555549443A63656465326132662D59
:100CF000343161322D343734382D396231322D633D
:100D000035356336326633363766660A002F2F2054
:100D100000205200416363656C65726174696F6E97
:100D20003A2050003F4A206F7574206F6620726130
:100D30006E67652028302E303120746F20302E33BE
:100D4000290A004F4646004F4E0020580020204DF3
:100D500061783A2000200020204D696E3A2000532F
:100D60006F667420656E6473746F70733A2000460A
:100D7000523A0020466C6F773A200050726F7465CB
:100D8000637465642050696E0A004D424C204164D2
:100D90006A757374205A0020643A0020693A002072
:100DA000703A00496E76616C69642065787472757A
:100DB0006465720A0020643A0020693A0020703AA3
:100DC0000064697300656E0043290A0061626C6506
:100DD0006420286D696E2074656D702000436F6C0F
:100DE0006420657874727564657320617265200093
:100DF00046696C616D656E742072756E6F757420D6
:100E0000004D65736820706F696E74206F75742073
:100E10006F662072616E67650A004D343231206959
:100E20006E636F727265637420706172616D657458
:100E300065722075736167650A004F666673657435
:100E400073204170706C696564004572723A205479
:100E50006F6F206661722100546F6F20666172208F
:100E600066726F6D207265666572656E636520706F
:100E70006F696E740A00454550524F4D204F4B0A22
:100E800000205A323A004475616C20456E647374D8
:100E90006F702041646A7573746D656E7420286D7F
:100EA0006D293A20002E0A002028302D31302900EB
:100EB0002076616C7565206F7574206F6620726195
:100EC0006E676500416476616E6365204B3D004D41
:100ED000383420582059205A204500446F6E652030
:100EE0007072696E74696E672066696C650A004D80
:100EF0003737004D333100496E76616C6964206587
:100F0000787472756465720A004361703A00220A4F
:100F100000656E7175657565696E672022006F6B7F
:100F200000526573656E643A200025697300256977
:100F30006D20256973002569682025696D20256964
:100F40007300256964202569682025696D2025695D
:100F50007300256979202569642025696820256941
:100F60006D202569730020573A0042656420436F65
:100F70006F6C696E672E2E2E004265642048656195
:100F800074696E672E2E2E0023646566696E652077
:100F900044454641554C545F0000626564004B6413
:100FA00020004B6920004B702000504944204175BF
:100FB000746F74756E652066696E69736865642107
:100FC0002050757420746865206C617374204B70B8
:100FD0002C204B6920616E64204B6420636F6E731C
:100FE00074616E74732066726F6D2062656C6F77CA
:100FF00020696E746F20436F6E66696775726174E5
:10100000696F6E2E680A00504944204175746F74F0
:10101000756E65206661696C6564212074696D6513
:101020006F75740A00504944204175746F74756E71
:1010300065206661696C6564212054656D70657218
:10104000617475726520746F6F20686967680A0043
:10105000204B643A2000204B693A2000204B703A24
:101060002000204B643A2000204B693A2000204B9E
:10107000703A20000A204E6F206F76657273686F99
:101080006F740A002054753A2000204B753A2000F6
:10109000206D61783A2000206D696E3A200020644E
:1010A0003A200020626961733A200050494420418F
:1010B00075746F74756E652073746172740A005074
:1010C0004944204175746F74756E65206661696C62
:1010D0006564212054656D70657261747572652058
:1010E000746F6F20686967680A0050494420417531
:1010F000746F74756E6500504944204175746F7447
:10110000756E65206661696C6564212042616420AA
:101110006578747275646572206E756D6265720AA9
:10112000006E6F74696669636174696F6E20006F29
:1011300070656E00545249474745524544003A2075
:101140000066696C616D656E74007A325F6D696E00
:10115000007A5F6D696E00795F6D696E00785F6D12
:10116000696E005265706F7274696E6720656E6497
:1011700073746F70207374617475730A0020746FD8
:101180006F206C6F6E6720657874727573696F6E0F
:101190002070726576656E7465640A0020636F6CFA
:1011A0006420657874727573696F6E2070726576ED
:1011B000656E7465640A00486F6D696E67204661EC
:1011C000696C656400000000C000000000000000C1
:1011D0000000004842000048420000A040576172F1
:1011E0006E696E673A20486F6D696E672042756D53
:1011F000702044697669736F72203C20310A0002C6
:101200000204486F6D696E67204661696C65640011
:1012100020456E6473746F703F0A00426164200061
:101220000000A0400000A0400000004000005E431D
:1012300000005C4300005243FFFFFF00000001007C
:1012400000000100008000555555000000400033AB
:10125000333300AAAA2A004992240000002000C7C4
:10126000711C0099991900D1451700555515003B7F
:10127000B113002449120011111100000010000FD9
:101280000F0F00E3380E0043790D00CCCC0C00C3E7
:10129000300C00E8A20B0064210B00AAAA0A00701F
:1012A0003D0A009DD80900427B090092240900DC18
:1012B000D30800888808001042080000000800F0E9
:1012C000C107008787070075500700711C07003EA3
:1012D000EB0600A1BC060069900600666606007079
:1012E0003E06006118060017F4050074D105005B86
:1012F000B00500B2900500627205005555050078F2
:10130000390500B81E0500050505004EEC040087F0
:10131000D40400A1BD040090A7040049920400C1B8
:101320007D0400EE690400C7560400444404005CD8
:101330003204000821040041100400000004003FB2
:10134000F00300F8E0030026D20300C3C30300CC7F
:10135000B503003AA803000A9B0300388E0300C0BF
:101360008103009F750300D0690300505E03001DD8
:1013700053030034480300913D0300333303001648
:10138000290300381F030097150300300C030003E6
:101390000303000BFA020049F10200BAE802005C04
:1013A000E002002DD802002DD0020059C80200B082
:1013B000C0020031B90200DAB10200AAAA0200A0FC
:1013C000A30200BC9C0200FA9502005C8F0200DFC1
:1013D00088020082820200457C02002776020027F4
:1013E000700200436A02007C640200D05E02003F8B
:1013F000590200C8530200FFFDFCFAF8F6F4F2F0BF
:10140000EEECEAE9E7E5E3E1E0DEDCDAD9D7D5D4D2
:10141000D2D0CFCDCBCAC8C7C5C3C2C0BFBDBCBA6E
:10142000B9B7B6B4B3B2B0AFADACAAA9A8A6A5A4DB
:10143000A2A1A09E9D9C9A99989795949392908F23
:101440008E8D8B8A8988878684838281807F7E7D4A
:101450007B7A797877767574737271706F6E6D6C54
:101460006B6A696867666564636261605F5E5D5C44
:101470005B5A5958585756555453525150504F4E25
:101480004D4C4B4A4A4948474646454443424241EF
:10149000403F3E3E3D3C3B3B3A39383837363535A8
:1014A000343332323130302F2E2E2D2C2B2B2A2953
:1014B0002928272726252524232322212120201FF0
:1014C0001E1E1D1C1C1B1B1A191918181716161581
:1014D0001514131312121111100F0F0E0E0D0D0C07
:1014E0000C0B0A0A09090808070706060505040483
:1014F00003030202010000544654205365726961DF
:101500006C2044656275673A205374617274696E29
:1015100067205344205072696E742E2E2E204A305C
:10152000340A004A303400544654205365726961CD
:101530006C2044656275673A205344205072696E8E
:101540007420436F6D706C657465642E2E2E204A76
:1015500031340A004A31340000005C4300005C432F
:1015600000005243000000C0000000000000000026
:1015700053657474696E67732053746F7265640089
:10158000290A002062797465733B2063726320002E
:1015900053657474696E67732053746F7265642049
:1015A0002800454550524F4D206461746173697A3B
:1015B00065206572726F722E0A00290A0020627916
:1015C0007465733B2063726320002073746F7265CF
:1015D000642073657474696E6773207265747269D0
:1015E00065766564202800202863616C63756C61F2
:1015F00074656429210A0020213D20004545505290
:101600004F4D20435243206D69736D6174636820B0
:101610002D202873746F7265642920002053697A25
:10162000653A2000496E6465783A2000204D617269
:101630006C696E3D563831290A00454550524F4D70
:101640002076657273696F6E206D69736D61746366
:10165000682028454550524F4D3D00454550524F5A
:101660004D20496E697469616C697A65640A004845
:10167000617264636F6465642044656661756C744F
:101680002053657474696E6773204C6F6164656480
:101690000A000000FA430000F04200002041000070
:1016A000484300002043000020430000484400005D
:1016B0004344B80B0000D007000090010000102741
:1016C00000003B200020204D363033200020204DEC
:1016D00034313220530046696C616D656E7420723E
:1016E000756E6F75742073656E736F723A00205556
:1016F000004C0046696C616D656E74206C6F6164AE
:101700002F756E6C6F6164206C656E677468733AD8
:101710000020204D393030204B004C696E656172DD
:1017200020416476616E63653A00204400204900E0
:1017300020204D3330342050002044002049002028
:10174000204D33303120500050494420736574746B
:10175000696E67733A0020204D36363600456E6458
:1017600073746F702061646A7573746D656E743A1A
:10177000002020473239205334205A00204A0020CC
:101780002047323920533320490020204D34323055
:101790002053004D65736820426564204C65766572
:1017A0006C696E673A0020204D3230362058004870
:1017B0006F6D65206F66667365743A00204A00207D
:1017C000530020204D323035204200416476616E56
:1017D0006365643A20423C6D696E5F7365676D6551
:1017E0006E745F74696D655F75733E20533C6D69FF
:1017F0006E5F66656564726174653E20543C6D6918
:101800006E5F74726176656C5F6665656472617443
:10181000653E204A3C6A756E635F6465763E0020D3
:10182000540020520020204D3230342050004163BB
:1018300063656C65726174696F6E2028756E69747A
:10184000732F7332293A20503C7072696E745F6155
:101850006363656C3E20523C726574726163745FB1
:10186000616363656C3E20543C74726176656C5FA5
:10187000616363656C3E0020204D3230312058009A
:101880004D6178696D756D20416363656C6572614A
:1018900074696F6E2028756E6974732F7332293ADC
:1018A0000020204D3230332058004D6178696D752D
:1018B0006D206665656472617465732028756E6954
:1018C00074732F73293A00537465707320706572B6
:1018D00020756E69743A0020440020204D3230306B
:1018E0002053002044697361626C65640A00466994
:1018F0006C616D656E742073657474696E67733A9C
:101900000020286D6D290020204732312020202022
:101910003B20556E69747320696E206D6D0024F450
:10192000D43050C38E20C2A24017828B7011127A1D
:10193000910D816CD90AA861E108C7586607615109
:1019400043061E4B5D05C145A7041A411104093D1C
:101950009803713931034036DB0265339102D4308C
:101960005402802E1D02632CEE01752AC501B02899
:10197000A001102781018F2564012B244B01E02257
:101980003401AC211F018D200D01801FFC00841E3D
:10199000ED00971DDF00B81CD200E61BC600201B1F
:1019A000BC00641AB200B219A8000A19A0006A1893
:1019B0009900D117910040178B00B516840031169D
:1019C0007E00B31579003A157300C7146F005814E0
:1019D0006A00EE1366008813630025135E00C712C9
:1019E0005B006C12570015125400C11151007011A8
:1019F0004F0021114B00D61049008D1047004610B2
:101A0000440002104200C00F4000800F3E00420F11
:101A10003C00060F3B00CB0E3800930E37005C0EE7
:101A20003500270E3400F30D3200C10D3100900D4A
:101A30003000600D2E00320D2D00050D2C00D90C4C
:101A40002B00AE0C2900850C29005C0C2700350CFE
:101A500027000E0C2600E80B2400C40B2400A00B6A
:101A600023007D0B23005A0B2100390B2100180B9A
:101A70002000F80A1F00D90A1E00BB0A1E009D0A9A
:101A80001D00800A1D00630A1C00470A1B002C0A67
:101A90001B00110A1A00F7091A00DD091900C40910
:101AA0001900AB091900920917007B091800630996
:101AB00017004C09160036091600200916000A09FD
:101AC0001500F5081500E0081400CC081400B8084B
:101AD0001400A4081400900813007D0812006B087D
:101AE0001300580812004608120034081100230899
:101AF00011001208110001081100F0071000E007A2
:101B00001000D0071000C0071000B0070F00A10799
:101B1000100091070E0083070F0074070F00650780
:101B20000E0057070E0049070E003B070D002E0759
:101B30000E0020070D0013070D0006070D00F90623
:101B40000C00ED060D00E0060C00D4060C00C806E3
:101B50000C00BC060C00B0060C00A4060B00990695
:101B60000C008D060B0082060B0077060B006C063E
:101B70000B0061060A0057060B004C060A004206DD
:101B80000A0038060A002E060A0024060A001A0671
:101B90000A001006090007060A00FD050900F40501
:101BA0000900EB050900E2050900D9050900D00587
:101BB0000900C7050900BE050900B5050800AD0507
:101BC0000800A50509009C050800940508008C057F
:101BD0000800840508007C050800740508006C05F1
:101BE0000700650508005D050700560508004E055D
:101BF00007004705070040050800380507003105C4
:101C000007002A050700230507001C050600160526
:101C100007000F0507000805060002050700FB0482
:101C20000600F5040700EE040600E8040600E204DE
:101C30000700DB040600D5040600CF040600C90433
:101C40000600C3040600BD040600B7040600B10484
:101C50000500AC040600A6040600A00405009B04D1
:101C6000060095040500900406008A04050085041A
:101C70000500800406007A04050075040500700460
:101C800005006B04050066040500610405005C04A2
:101C9000050057040500520405004D0405004804E2
:101CA0000500430405003E0404003A040500350421
:101CB0000500300404002C0405002704040023045C
:101CC00005001E0404001A04040016040500110493
:101CD00004000D04040009040500040404000004C9
:101CE0000400FC030400F8030400F4030400F00300
:101CF0000400EC030400E8030400E4030400E00330
:101D00000400DC030400D8030400D4030400D0035F
:101D10000400CC030400C8030300C503030024F43B
:101D200004D9201BC40C5C0E9804C4095F0265072B
:101D30007101F405F900FB04B30048048700C103F6
:101D400069005803550003034500BE023A008402AF
:101D5000310053022A002902250004022000E40178
:101D60001C00C8011900AF0117009801140084017C
:101D70001300710110006101100051010E004301B8
:101D80000D0036010B002B010B0020010B0015018B
:101D900009000C01090003010800FB000800F30022
:101DA0000800EB000700E4000600DE000600D80093
:101DB0000600D2000600CC000500C7000500C200E6
:101DC0000500BD000400B9000400B5000400B10026
:101DD0000400AD000400A9000400A5000300A20057
:101DE00003009F0004009B0003009800030095007F
:101DF000020093000300900003008D0002008B009E
:101E000003008800020086000200840003008100B5
:101E100002007F0002007D0002007B0002007900CA
:101E200002007700010076000200740002007200D8
:101E30000100710002006F0002006D0001006C00E3
:101E400002006A00010069000200670001006600EC
:101E500001006500010064000200620001006100F1
:101E60000100600001005F0002005D0001005C00F5
:101E700001005B0001005A000100590001005800F8
:101E800001005700010056000100550001005400F8
:101E900001005300000053000100520001005100F6
:101EA0000100500001004F0001004E0000004E00F4
:101EB00001004D0001004C0001004B0000004B00F0
:101EC00001004A00010049000100480000004800EC
:101ED00001004700010046000000460001004500E7
:101EE00000004500010044000100430000004300E1
:101EF00001004200000042000100410000004100DA
:101F00000100400001003F0000003F0001003E00D2
:101F100000003E0001003D0000003D0001003C00CB
:101F200000003C0000003C0001003B0000003B00C2
:101F300001003A0000003A000100390000003900B9
:101F400001003800000038000000380001003700B0
:101F500000003700010036000000360000003600A7
:101F6000010035000000350000003500010034009C
:101F70000000340000003400010033000000330092
:101F80000000330001003200000032000000320087
:101F9000010031000000310000003100010030007C
:101FA000000030000000300001002F0000002F0072
:101FB00000002F0000002F0001002E0000002E0066
:101FC00000002E0001002D0000002D0000002D005B
:101FD00000002D0001002C0000002C0000002C004F
:101FE00000002C0001002B0000002B0000002B0043
:101FF00000002B0001002A0000002A0000002A0037
:1020000000002A000100290000002900000029002A
:10201000000029000000290001002800000028001D
:102020000000280000002800000028000100270010
:102030000000270000002700000027000000270004
:1020400001002600000026000000260000002600F7
:1020500000002600010025000000250000002500EA
:1020600000002500000025000000250001002400DC
:1020700000002400000024000000240000002400D0
:1020800001002300000023000000230000002300C3
:1020900000002300000023000000230001002200B4
:1020A00000002200000022000000220000002200A8
:1020B000000022000100210000002100000021009A
:1020C000000021000000210000002100000021008C
:1020D000010020000000200000002000000020007F
:1020E0000000200000002000000020000000200070
:1020F00001001F0000001F0000001F0000001F0063
:1021000000001F0000001F0000001F0001001E0053
:1021100000001E0000001E0000001E000000232C16
:102120000000B8220000561800003A0F0000B8085E
:102130000000B1040000710200003E0100002043D5
:102140006F756E7420583A00004265640045310096
:10215000626564002C2073797374656D2073746FED
:102160007070656421204865617465725F49443A06
:10217000200048656174696E67204661696C65641A
:102180000048656174696E67206661696C6564000A
:102190004D3131322053687574646F776E00700171
:1021A0002C0190012701B0012201C0011D01F001A5
:1021B00018011002130130020E01600209019002A1
:1021C0000401C002FF000003FA004003F500800391
:1021D000F000D003EB002004E6007004E100E0040E
:1021E000DC004005D700C005D2004006CD00D00677
:1021F000C8008007C3003008BE00F008B900C0095D
:10220000B400B00AAF00B00BAA00D00CA500000EBD
:10221000A000500F9B00C0109600501291000014B7
:102220008C00C0158700B0178200B0197D00D01B4C
:102230007800001E730040206E0090226900F02498
:10224000640040275F0090295A00E02B5500102EB3
:10225000500020304B0010324600E03341009035F2
:102260003C001037370070383200A0392D00B03AEA
:102270002800A03B2300603C1E00103D1900903D4B
:102280001400103E0F00703E0A00C03E0500003FE3
:102290000000403FFBFF803FF6FFC03FF1FF544886
:1022A00045524D414C2052554E41574159005468BA
:1022B00065726D616C2052756E617761790045724F
:1022C000723A204D415854454D50004D41585445A7
:1022D0004D5020747269676765726564004572725B
:1022E0003A204D494E54454D50004D494E54454DB0
:1022F000502074726967676572656400202F002042
:1023000042403A0020403A0020573A007C3C3E5E72
:102310002B3D3F2F5B5D3B2C2A225C005072696E87
:1023200074205061757365640043616E6E6F742034
:102330006F70656E2073756264697220005344206B
:10234000496E6974204661696C0053442063617270
:1023500064206F6B0A006F70656E526F6F74206639
:1023600061696C65640A00766F6C756D652E696EC7
:102370006974206661696C65640A004E6F2053447D
:1023800020636172640A004D323320257300466970
:102390006C652073656C65637465640A002053691D
:1023A0007A653A200046696C65206F70656E6564D9
:1023B0003A2000454E4420535542524F5554494E01
:1023C000450A002220706F73002220706172656ED2
:1023D000743A2200535542524F5554494E452043BA
:1023E000414C4C207461726765743A2200537562E7
:1023F00063616C6C204F766572666C6F7700457810
:10240000636565646564206D617820535542524F61
:102410005554494E452064657074683A310A005736
:10242000726974696E6720746F2066696C653A2002
:10243000002E0A006F70656E206661696C65642C01
:102440002046696C653A2000667265736800646FA7
:10245000696E67002066696C653A20004E6F7720D0
:102460000000002100240027002A002D0030003346
:102470000001010000040107010A010000220025FB
:102480000028002B002E003100340002010000055E
:102490000108010B01000020002300260029002C68
:1024A000002F0032000001000003010601090105B0
:1024B000050505070508080808020202020A0A08BD
:1024C00008040404040101010101010101030303E3
:1024D0000303030303040707070C0C0C0C0C0C0C80
:1024E0000C0202020206060606060606060B0B0B87
:1024F0000B0B0B0B0B0102102020080810204010C2
:1025000020408002010201080402010102040810B7
:1025100020408080402010080402018004020180D5
:1025200040201008040201080402010102040810FE
:10253000204080010204081020408000000A0B02A5
:10254000090C0D0E08070304010000000000000044
:10255000000000000000000000000000000000007B
:102560000000000000000012111000000000000038
:10257000000000000000000000000000000000005B
:1025800000025446542053657269616C20446562B0
:1025900075673A2046696E69736865642073746173
:1025A000727475700A005446542053657269616CE8
:1025B0002044656275673A2052656164792E2E2E3B
:1025C000204A31320A004A313200544654205365C1
:1025D0007269616C2044656275673A204D61696E6D
:1025E00020626F6172642072657365742E2E2E20D6
:1025F0004A31370A004A3137001000C90210012C55
:10260000014001220170011801B0010E01F0010426
:10261000015002FA00B002F0003003E600D003DC03
:10262000009004D2007005C800A006BE000008B4E7
:1026300000B009AA00D00BA000600E960060118CBB
:10264000000015820020197800C01D6E00A02264D1
:1026500000B0275A00902C500000314600E0343C76
:102660000010383200903A2800603C1E00A03D1453
:1026700000803E0A00203F00002020506C616E6EFA
:10268000657242756666657242797465733A2000B8
:102690002046726565204D656D6F72793A20004362
:1026A0006F6D70696C65643A204F6374203330201D
:1026B000323032300A00204C6173742055706461EE
:1026C0007465643A20323032302D30392D31332068
:1026D0007C20417574686F723A2053697269757312
:1026E0002D33520A00322E302E362E310A004D6123
:1026F000726C696E0020536F667477617265205248
:10270000657365740A00205761746368646F67209D
:1027100052657365740A002042726F776E206F7580
:10272000742052657365740A002045787465726E72
:10273000616C2052657365740A00506F776572553D
:10274000700A0073746172740A006175746F256396
:102750002E67004732385859004D3130303100650E
:1027600072726F722077726974696E6720746F205D
:1027700066696C650A00446F6E6520736176696EE8
:10278000672066696C652E0A004D323900205A3A7E
:102790000020593A0020583A00656E6473746F70D7
:1027A00073206869743A20004520255300486F6DF6
:1027B0006520257325732573204669727374005450
:1027C00046542053657269616C2044656275673AAE
:1027D0002055736572436F6E6669726D2053442095
:1027E00052656865617420646F6E652E2E2E204AD6
:1027F00031380A004A3138005265686561742066D4
:10280000696E69736865642E00544654205365727E
:1028100069616C2044656275673A2055736572433F
:102820006F6E6669726D20534420486561746572ED
:102830002074696D656F75742E2E2E204A31380A0A
:10284000004A31380048656174657254696D656F7E
:102850007574005446542053657269616C20446558
:102860006275673A2055736572436F6E6669726D63
:102870002046696C616D656E742069732070757295
:1028800067696E672E2E2E204A31380A004A313889
:102890000046696C616D656E742050757267696E73
:1028A000672E2E2E005446542053657269616C20A9
:1028B00044656275673A2055736572436F6E666949
:1028C000726D20426C6F636B696E672066696C6124
:1028D0006D656E742070726F6D70742E2E2E204A8E
:1028E00032330A004A323300544654205365726929
:1028F000616C2044656275673A2055736572436F59
:102900006E6669726D2046696C616D656E742069D2
:1029100073206F75742E2E2E204A31380A004A31EA
:1029200038004C6F61642046696C616D656E74009F
:102930005446542053657269616C20446562756722
:102940003A2055736572436F6E6669726D20534409
:10295000207072696E742070617573656420646F95
:102960006E652E2E2E204A31380A004A3138004E2C
:102970006F7A7A6C65205061726B656400544654BE
:102980002053657269616C2044656275673A204F17
:102990006E55736572436F6E6669726D52657175BF
:1029A00069726564207472696767657265642E2E4A
:1029B0002E2000DB0FC93F45BCDA3F8FB30240FC3D
:1029C000F0274056946140FE4B9B4084A5D840E0E0
:1029D000231841346A5641E859974164DBD5416E6A
:1029E000271742B4B75542CE1A9742C8AED542B562
:1029F000885A43D40684BFA65FA7BF7443E0BF10C4
:102A0000B11AC01C2C58C0E8F697C0B849D6C04EC1
:102A10004E17C124D355C1802497C1A0B5D5C1128A
:102A20001A17C244AE55C2781797C26CACD5C267AC
:102A3000885AC320746F6F206C6F6E67206578743E
:102A4000727573696F6E2070726576656E746564F9
:102A50000A0020636F6C6420657874727573696F07
:102A60006E2070726576656E7465640A00220A00D5
:102A7000556E6B6E6F776E20636F6D6D616E643A2D
:102A8000202200204500205A00205900204D3932D4
:102A900020580020453A00205A3A0020593A005860
:102AA0003A0043616E6E6F7420656E7465722073B8
:102AB00075626469723A20004D33303320452D3100
:102AC00020533630204331302055310A4D353030D7
:102AD0000A4D3330302050313035205331363631C5
:102AE0000A4D3330302050323130205331313038BC
:102AF000005370656369616C204D656E753A2041C5
:102B000075746F2054756E6520486F74626564201B
:102B10005069640A004D31303620533139300A474C
:102B20003420503530300A4D333033204530205377
:102B3000323030204331302055310A4D3530300AA3
:102B40004D3130370A4D333030205031303520533D
:102B5000313636310A4D3330302050323130205347
:102B600031313038005370656369616C204D656E9A
:102B7000753A204175746F2054756E6520486F74E6
:102B8000656E64205049440A0047323920533200B0
:102B90005370656369616C204D656E753A204E65B2
:102BA0007874204D65736820506F696E740A004711
:102BB0003239205331005370656369616C204D6573
:102BC0006E753A205374617274204D657368204CA1
:102BD0006576656C696E670A004D31343020533676
:102BE00030005370656369616C204D656E753A20E5
:102BF00050726568656174204265640A0047393126
:102C00000A4731205A2D302E310A4739300053708F
:102C1000656369616C204D656E753A205A20446F7A
:102C2000776E20302E310A004739310A4731205A59
:102C30002D302E30320A4739300053706563696198
:102C40006C204D656E753A205A20446F776E2030A7
:102C50002E30320A004739310A4731205A2B302EA4
:102C600030320A473930005370656369616C204D1A
:102C7000656E753A205A20557020302E30320A0089
:102C80004739310A4731205A2B302E310A47393023
:102C9000005370656369616C204D656E753A205A0A
:102CA00020557020302E310A004D3530300A4D331A
:102CB000303020503130352053313130380A4D33E7
:102CC000303020503231302053313636310053709D
:102CD000656369616C204D656E753A205361766558
:102CE00020454550524F4D0A004D3530320A4D3384
:102CF000303020503130352053313636310A4D33A3
:102D00003030205032313020533131303800537060
:102D1000656369616C204D656E753A204C6F616426
:102D20002046572044656661756C74730A00200064
:102D30005446542053657269616C2044656275671E
:102D40003A2041626F757420746F207072696E74DE
:102D50002066696C65202E2E2E200063616E6365EF
:102D60006C005072696E742041626F727465640009
:102D70004469736D6973730055492041626F7274C1
:102D80006564004739310A473120452D32204631EC
:102D90003830300A47393000544654205365726940
:102DA000616C2044656275673A20534420707269F3
:102DB0006E742073746F702063616C6C65642E2E6A
:102DC0002E204A31360A004A313600726573756D1D
:102DD00065004D3234005446542053657269616C6D
:102DE0002044656275673A20526573756D652050A1
:102DF00072696E7420776974682066696C616D65AC
:102E00006E742073656E736F72207374696C6C20BE
:102E1000747269707065642E2E2E204A31380A0053
:102E20004A3138005446542053657269616C20441D
:102E3000656275673A20526573756D6520507269D9
:102E40006E7420776974682066696C616D656E7454
:102E50002073656E736F72207374696C6C2074726A
:102E600069707065642E2E2E200A0054465420533B
:102E7000657269616C2044656275673A205344202D
:102E80007072696E7420726573756D65642E2E2E76
:102E9000204A30340A004A3034004D323520500A7E
:102EA0004D323400526573756D650055492050618F
:102EB000757365004739310A473120452D32204668
:102EC000313830300A473930005446542053657247
:102ED00069616C2044656275673A205344207072C2
:102EE000696E7420706175736520737461727465A6
:102EF000642E2E2E204A30350A004A3035002F002D
:102F00002F002F2E2E002F2E2E003C53706563694C
:102F1000616C204D656E753E003C73706563696140
:102F20006C6D6E753E003C457869743E003C45789A
:102F300069743E003C5361766520454550524F4DC3
:102F40003E003C31315376454550524F4D3E003C9A
:102F50004C6F61642046572044656661756C7473DC
:102F60003E003C313046574465666C74733E003C0D
:102F70004175746F2054756E6520486F7462656486
:102F8000205049443E003C30394874426564504901
:102F9000443E003C4175746F2054756E6520486F47
:102FA00074656E64205049443E003C303848744596
:102FB0006E645049443E003C4E657874204D657304
:102FC0006820506F696E743E003C30374D65736801
:102FD0004E506E743E003C5374617274204D6573A4
:102FE00068204C6576656C696E673E003C303653F0
:102FF0004D6573684C766C3E003C50726568656147
:1030000074206265643E003C3035507265687442DD
:1030100065643E003C5A20446F776E20302E313E6E
:10302000003C30345A446E302E313E003C5A20442D
:103030006F776E20302E30323E003C30335A446E73
:10304000302E30323E003C5A20557020302E303227
:103050003E003C30325A5570302E30323E003C5AE1
:1030600020557020302E313E003C30315A557030A2
:103070002E313E00454E44003C5370656369616CDF
:103080005F4D656E753E003C5370656369616C5FB2
:103090004D656E753E005446542053657269616CEF
:1030A0002044656275673A204E6F20534420436187
:1030B0007264206D6F756E74656420746F20726524
:1030C0006E6465722043757272656E742046696C19
:1030D00065204C6973742E2E2E204A30320A004A25
:1030E000303200464E2000322E302E362E31004A2D
:1030F00033332000005446542053657269616C20BC
:1031000044656275673A204E6F20534420436172D4
:1031100064206D6F756E74656420746F20726566CF
:1031200072657368205344204132362E2E2E204A79
:1031300030320A004A3032005446542053657269D6
:10314000616C2044656275673A20436F6F6C696EED
:103150006720646F776E2E2E2E204A31320A004A85
:103160003132004F4B004731205A3130004F4B0075
:103170004731205A3130000054465420536572695B
:10318000616C2044656275673A20413232204D6F90
:1031900076652066696E616C207265717565737401
:1031A00020776974682067636F64652E2E2E200077
:1031B0004739310A25730A47393000473120452500
:1031C000694635303000473120452D302E314625B7
:1031D000690047312045302E3146256900473120AE
:1031E0005A2569462569004731205A2D302E31462F
:1031F0002569004731205A302E3146256900473174
:103200002059256946256900473120592D302E3136
:103210004625690047312059302E3146256900473F
:10322000312058256946256900473120582D302E18
:10323000314625690047312058302E314625690036
:1032400047323800473238205A0047323820590078
:1032500047323820580041323056200000004731B4
:10326000205A3130005446542053657269616C20F5
:1032700044656275673A2046696C652053656C65E4
:10328000637465642E2E2E204A323020004A32307C
:1032900000005446542053657269616C2044656295
:1032A00075673A20436C6561722066696C652073AE
:1032B000656C656374696F6E2E2E2E204A32312044
:1032C0000A004A3231000054465420536572696145
:1032D0006C2044656275673A20436C6561722066B4
:1032E000696C652073656C656374696F6E2E2E2E34
:1032F000204A3231200A004A3231005072696E741D
:1033000065722068616C7465642E206B696C6C2832
:10331000292063616C6C65642100203939393A39A0
:10332000393900204D002048200041375620004107
:103330003656202D2D2D0054465420536572696158
:103340006C2044656275673A204E6F2053442043D9
:10335000617264206D6F756E74656420746F207285
:10336000657475726E207072696E74696E67207311
:1033700074617475732E2E2E204A30320A004A3042
:103380003200413656200000205A3A200020593A97
:10339000200041355620583A200041345620004143
:1033A0003356200041325620004131562000413032
:1033B0005620005446542053657269616C20436F57
:1033C0006D6D616E643A20005446542053657269F5
:1033D000616C2044656275673A20534420507269DD
:1033E0006E742053746F707065642E2E2E204A31D7
:1033F000340A004A3134004D38340A4D3237005413
:1034000046542053657269616C2044656275673A61
:103410002046696E69736865642073746F707069A3
:103420006E67207072696E742C2072656C656173B2
:10343000696E67206D6F746F7273202E2E2E0A00D6
:103440002E0A006F70656E206661696C65642C20C1
:1034500046696C653A2000416E7963756269632044
:103460006933204D6567612052656164792E005093
:1034700072696E74696E672E2E2E006E6F746966A7
:1034800069636174696F6E200054465420536572FD
:1034900069616C2044656275673A2053442063611A
:1034A0007264207374617465206368616E6765641B
:1034B0002E2E2E206973496E7365727465640A003E
:1034C0004A3030005446542053657269616C204480
:1034D000656275673A205344206361726420737497
:1034E000617465206368616E6765642E2E2E2021ED
:1034F0006973496E7365727465640A004A303100FD
:103500005446542053657269616C20446562756746
:103510003A204F6E5344436172645374617465433F
:1035200068616E6765206576656E74207472696780
:1035300067657265642E2E2E0054465420536572C2
:1035400069616C2044656275673A204E6F6E206237
:103550006C6F636B696E672066696C616D656E7414
:103560002072756E6F75742E2E2E204A31350A002A
:103570004A3135005446542053657269616C2044C9
:10358000656275673A20426C6F636B696E6720668F
:10359000696C616D656E742070726F6D70742E2E23
:1035A0002E204A32330A004A3233000A4D3330307B
:1035B00020503230302053313536370A4D333030D9
:1035C00020503230302053313137340A4D333030CF
:1035D00020503230302053313536370A4D333030B9
:1035E00020503230302053313137340A4D333030AF
:1035F00020503230303020533135363700004BCC3C
:1036000067D411241FBECFEFD1E2DEBFCDBF00E0F3
:103610000CBF12E0A0E0B2E0E0E6F0EC01E00BBF8E
:1036200002C007900D92AE3CB107D9F728E1AEEC8D
:10363000B2E001C01D92AF3BB207E1F71AE1C0E072
:10364000DBE100E006C021970109802FFE010E9406
:1036500082DFCF3FD10780E00807A9F70E9479CD2C
:103660000C941EE00C940000CF93DF93C8E4D1E2E9
:1036700020E030E048EC52E460914C1270914D1221
:1036800080914E1290914F120E94C2DE87FF17C0A8
:1036900080E0FE01C49120910B0190E0B0E0A0E039
:1036A00004C0B695A79597958795CA95D2F780FDE2
:1036B0000EC0207220930901DF91CF910895FE0181
:1036C000949181E001C0880F9A95EAF7E2CF2095A6
:1036D000F0CFEF92FF920F931F93E092DB02F092F4
:1036E000DC020093DD021093DE026093DF02709330
:1036F000E0028093E1029FEFFF27621B730B840BB4
:1037000030F4809570956195790B890B992790938A
:10371000DA02A6E06A9F0092CE02512DEE277A9F30
:10372000500DE11D8A9FE00D5093CF02E093D0022F
:10373000AFE06A9F0092D202512DEE277A9F500D82
:10374000E11D8A9FE00D5093D302E093D402AAE0DA
:103750006A9F0092D602512DEE277A9F500DE11DEF
:103760008A9FE00D5093D702E093D8021F910F91EA
:10377000FF90EF9008959F92AF92BF92CF92DF9209
:10378000EF92FF920F931F93CF93DF9300D01F927E
:103790001F92CDB7DEB7E7EFF3E10027BB27462F37
:1037A000572FA82FAA2341F4A52F542FB85FAA237F
:1037B00019F4A52F5527B85FA03138F45295A2957A
:1037C000452F4F70507FA42BBC5FA03428F4550FB9
:1037D000AA1F550FAA1FBE5FA03818F4550FAA1FC5
:1037E000B395550FAA1FEA0FF01F449151E0AA2785
:1037F000B85081F1C8F0B0FF02C0440F551FB1FFAF
:1038000004C0440F551F440F551FB2FF06C0529508
:103810004295142F1F70407F512BB3FF1BC0A52F63
:10382000542F44270C942A1CB195B0FF02C0559523
:103830004795B1FF04C05595479555954795B2FFFB
:1038400005C05295407F4295452B5F70B3FF02C083
:10385000452F5527DD24CC24BB24B2E0649FD0182B
:10386000C108B00AB00B749FC018B108B00B849F98
:10387000B018B109659FC018B108B00B759FB0189A
:10388000B109859FB0196A9FB018B1097A9FB01924
:103890004D9DA12C99243327992722275D9DA00CAB
:1038A000911C301F901F201FAD9D900C311D901F4B
:1038B000201F4C9DA00C911C301F901F201F5C9D51
:1038C000900C311D901F201FAC9D300D911D201FAD
:1038D0004B9D900C311D901F201F5B9D300D911D45
:1038E000201FAB9D900D211D4B9F300D911D201F62
:1038F0005B9F900D211DAB9F200DB1E0BB24CC241C
:10390000DD24639FD018C108B00AB00B739FC018A4
:10391000B108B00B839FB018B109699FC018B108F6
:10392000B00B799FB018B109899FB019629FB01888
:10393000B109729FB019D61AC70AB80A20F0B1E0CF
:103940003B0F901F201F1124792F632F90E0822FAF
:103950000F900F900F900F900F90DF91CF911F91CC
:103960000F91FF90EF90DF90CF90BF90AF909F901E
:103970000895CF92DF92EF92FF92809132058823D3
:1039800009F457C0C0902E05D0902F05E090300567
:10399000F090310520E030E0A901C701B6010E9496
:1039A000F0D8882309F445C020E030E040E05FE330
:1039B000C701B6010E9456D99B01AC010E9456D99D
:1039C0002BED3FE049E450E40E9456D99B01AC0145
:1039D00060E070E080E89FE30E94C2DD6B017C0143
:1039E000C0929404D0929504E0929604F0929704C9
:1039F0006091110270911202072E000C880B990B36
:103A00000E94F7D82AE037ED43E25CE30E9456D9E2
:103A1000A70196010E9456D96093530270935402F5
:103A20008093550290935602FF90EF90DF90CF90D5
:103A30000895C12CD12C80E8E82E8FE3F82ED0CF4A
:103A40008091A1149091A214891B8F7019F490E0B9
:103A500080E0089590919E14992351F0833030F4C2
:103A60008FEF890F19F080939E14F1CF10929E145E
:103A70008091A21422E6829FC00111248153964FA7
:103A8000FC01208120FDE3CF2091A2142F5F2F7035
:103A900020939F143091A2142091A014321304C0DB
:103AA00020919F142093A01408952F923F924F923B
:103AB0005F926F927F928F929F92AF92BF92CF92BE
:103AC000DF92EF92FF920F931F93CF93DF93CDB7C7
:103AD000DEB764970FB6F894DEBF0FBECDBF7A8B0A
:103AE000698BDC018D909D90AD90BC9013971496DE
:103AF0002D913D914D915C9117972D833E834F837E
:103B0000588720E030E040E251E4C501B4010E9452
:103B10003EDD2AE037ED43EA5CE30E9456D90E947D
:103B200034DE64300CF427C163E0E62E660FFF0834
:103B3000F701EE0FFF1FEE0FFF1FE954F94E408013
:103B40005180628073801701BFEF2B1A3B0A20E07F
:103B500030E040E251E46D817E818F8198850E9442
:103B60003EDD2AE037ED43EA5CE30E9456D90E942D
:103B700034DE64300CF403C163E0062F660F110BD2
:103B8000F801EE0FFF1FEE0FFF1FE954F94E2081E1
:103B900031814281538129833A834B835C83A8011D
:103BA0004F5F5F4F5C8B4B8BA5E0AE9DC001AF9D1F
:103BB000900D11249A878987FC01E00FF11FEE0F09
:103BC000FF1FEE0FFF1FE653FB4FC080D180E28046
:103BD000F380F101EE0FFF1FEE0FFF1FE954F94EC6
:103BE000A301920160817181828193810E943EDDF7
:103BF0006B877C878D879E87A3019201C501B401E5
:103C00000E943EDD2B013C0125E0229DF001239D19
:103C1000F00D1124F88BEF87E00FF11FEE0FFF1F5F
:103C2000EE0FFF1FE653FB4FA701960160817181E4
:103C3000828193810E943EDD2B853C854D855E858A
:103C40000E94C2DDA30192010E9456D9A7019601EC
:103C50000E943FDD6B017C01E985FA854B895C8917
:103C6000E40FF51FEE0FFF1FEE0FFF1FE653FB4F94
:103C700080809180A280B380EF85F889E40FF51FE2
:103C8000EE0FFF1FEE0FFF1FE653FB4FA501940140
:103C900060817181828193810E943EDD2B853C850C
:103CA0004D855E850E94C2DDA30192010E9456D916
:103CB000A50194010E943FDDA70196010E943EDD0F
:103CC0004B015C01EB89FC89EE0FFF1FEE0FFF1F1C
:103CD000E954F94E29813A814B815C81608171817F
:103CE000828193810E943EDD9B01AC01C501B4013C
:103CF0000E94C2DD4B015C0129813A814B815C81CC
:103D00006D817E818F8198850E943EDD9B01AC0193
:103D1000C501B4010E9456D9A70196010E943FDD5A
:103D2000A989BA892D913D914D915C910E9456D9F6
:103D30002091C6043091C7044091C8045091C90431
:103D40000E943FDD64960FB6F894DEBF0FBECDBF74
:103D5000DF91CF911F910F91FF90EF90DF90CF9067
:103D6000BF90AF909F908F907F906F905F904F909B
:103D70003F902F90089567FFD8CE60E0D6CE67FFC2
:103D8000FCCE60E0FACE90916F0081E091FD02C020
:103D900080E0089590916F009D7F90936F0008954B
:103DA0008F929F92AF92BF92CF92DF92EF92FF924B
:103DB000CF93DF93EC018090461090904710A09035
:103DC0004810B090491020E030E0A901C501B401CD
:103DD0000E94F0D8882309F454C0C880D980EA80B2
:103DE000FB80A7019601C501B4010E94F0D8181606
:103DF0000CF04CC020913D1030913E1040913F108E
:103E000050914010C701B6010E94F0D8882331F1CB
:103E1000C0923D10D0923E10E0923F10F0924010C0
:103E20002091411030914210409143105091441024
:103E3000688179818A819B810E9456D99B01AC015E
:103E400060E070E080E89FE30E943EDD60930D0239
:103E500070930E0280930F029093100260910D02F6
:103E600070910E0280910F0290911002DF91CF911C
:103E7000FF90EF90DF90CF90BF90AF909F908F908A
:103E8000089560E070E080E89FE3F0CF60E070E0CC
:103E9000CB01ECCF0F931F93CF93DF9300D01F92F2
:103EA000CDB7DEB78C0108960E94D01E69837A8355
:103EB0008B839C83BE016F5F7F4FC8010E94551D9D
:103EC0009B01AC01F80160857185828593850E9414
:103ED0003EDDF80160877187828793870F900F908E
:103EE0000F900F90DF91CF911F910F910895CF9375
:103EF000DF9324E0829FC0011124EC01C65BDF4EFA
:103F0000FC01E357F94F89589B4FDC012D913D91FE
:103F10004D915C9160817181828193810E943FDD2E
:103F2000688379838A839B83DF91CF910895809101
:103F3000A1149091A214891B8F7089F480919B0920
:103F400081110DC08091661490916714892B39F40A
:103F500081E090915610911103C080E0089581E0B6
:103F60000895CF93DF93DB01F9019C919130C1F06B
:103F7000943080F094509C938830D1F4808191816A
:103F8000009771F0019791838083480F591FEA01D0
:103F9000188206C08C3539F49C5F9C93943041F4B0
:103FA000DF91CF9108958B3339F781E08C93F8CF6F
:103FB00020813181B9016F5F7F4F71836083420F30
:103FC000531FEA018883808191818F3591056CF7B9
:103FD000E7CF90919906E92FF0E0E656F94E8083FD
:103FE0009F5F983040F49093990680919B098F5F72
:103FF00080939B09089510929906F7CF282F9091EE
:104000002B04833021F495FD0FC094FD0FC0892F40
:1040100090E0B0E0A0E004C0B695A795979587958D
:104020002A95D2F78170089581E0089580E008957F
:104030002FEB280F2A3108F042C0E22FF0E08091E8
:10404000470490914804A0914904B0914A0404C0E7
:10405000B695A795979587952A95D2F780FD02C0CA
:1040600081700895E35DFB4FE081EE2329F180919B
:10407000F30F9091F40FE80FF92FF11D808190ED6F
:10408000980F9A3030F08E3251F4818180538A300B
:1040900098F4F0931804E093170481E008958D32AA
:1040A00011F08B3249F4818190ED980F9A3088F3AA
:1040B0008E3211F48281EACFF0E0E0E0EACF80E0D6
:1040C0000895EF92FF920F931F93CF93DF930AEC23
:1040D00014E0C5E07801D5E0F7016191719181911B
:1040E00091917F0120E030E0A9010E94F0D8811178
:1040F0000EC0D15089F7C1500C5E1F4FC111EACFDD
:10410000DF91CF911F910F91FF90EF90089581E083
:10411000F7CF129A08959091310195FD0CC09091BE
:10412000300195FF08C08093360180913001806492
:104130008093300108952091F1022F5F2F770FB601
:1041400007FC27C09091F202921328C09091300191
:1041500095FF1EC09091F2024091F102941306C0A7
:10416000909131019F7D9093310112C0E92FF0E0D1
:10417000EF50FD4F32819F5F9F77309336019093D0
:10418000F20230913001306430933001491741F32D
:10419000D9CF9091F202921301C0FBCFE091F102CE
:1041A000F0E0EF50FD4F82832093F10280913101C6
:1041B0008062809331010895CF92DF92EF92FF9257
:1041C0000F931F93CF93DF93CDB7DEB7A0970FB6B2
:1041D000F894DEBF0FBECDBF611571058105910555
:1041E00079F100E0C42ED12CF12CE12CA70196012D
:1041F0000E94E3DC11E0100FE1E0F0E0EC0FFD1FA6
:10420000E00FF11D07FDFA956083B901CA01012F86
:10421000611571058105910549F7115010F1E1E033
:10422000F0E0EC0FFD1FE10FF11D17FDFA959081F5
:1042300087E39A3008F480E3890F0E948B20EDCF4A
:1042400080E3A0960FB6F894DEBF0FBECDBFDF911E
:10425000CF911F910F91FF90EF90DF90CF900C9432
:104260008B20A0960FB6F894DEBF0FBECDBFDF91B6
:10427000CF911F910F91FF90EF90DF90CF90089515
:10428000CF92DF92EF92FF920F931F93CF93DF9322
:10429000C5EFDFE002EA19E0C12CD12C7601C3940E
:1042A00069917991899199910E94F5D828893989E4
:1042B0004A895B890E9456D90E943BDEF8016193CE
:1042C0007193819391938F01C616D706E806F9067C
:1042D00010F46B017C01F0E1C530DF0709F76FEFE7
:1042E0007FEFCB01A70196010E94E3DC2093B20986
:1042F0003093B3094093B4095093B50923EF34E0E8
:1043000045E35FE360919E0970919F098091A00948
:104310009091A1090E9456D92AE136EF45E95EE362
:104320000E94C2DD6B017C016091F50F7091F60F68
:104330008091F70F9091F80F0E94F5D89B01AC0186
:10434000C701B6010E9456D90E9400DF6093B609EA
:104350007093B7098093B8099093B909DF91CF9111
:104360001F910F91FF90EF90DF90CF9008950F93E2
:104370001F93CF93DF9309E010E1CAEBD9E0F80176
:1043800021913191419151918F0160E070E080E87D
:104390009FE30E94C2DD6993799389939993F9E031
:1043A000CA3CDF0761F70E9423A2DF91CF911F91E2
:1043B0000F910C944021CF92DF92EF92FF920F93D6
:1043C0001F93C12CD12C76018C0128E632E044E603
:1043D00052E060E672E08CE592E00E94BCB51F916D
:1043E0000F91FF90EF90DF90CF9008952F923F9222
:1043F0004F925F926F927F928F929F92AF92BF92F5
:10440000CF92DF92EF92FF920F931F93CF93DF93A0
:1044100000D000D0CDB7DEB70E944EB90091C714CE
:104420001091C8142091C9143091CA1401151105B6
:104430002105310509F00DC32091CD14222309F483
:104440004BC0E091CB1421502093CD1421E02E0FCE
:104450002093CB143091CE14231302C01092CB14AE
:1044600024E0E29FF0011124E153FB4E0081118111
:10447000228133810093C3141093C4142093C51474
:104480003093C614600F711F811D911D6093C71476
:104490007093C8148093C9149093CA148091C51462
:1044A0009091C614892BC1F08FB78E83F894209019
:1044B000C3143090C4140091C5141091C614210186
:1044C000712C612C809148028F31F9F08F3F09F4F3
:1044D00097C09E819FBF469A26960FB6F894DEBF7E
:1044E0000FBECDBFDF91CF911F910F91FF90EF9045
:1044F000DF90CF90BF90AF909F908F907F906F9004
:104500005F904F903F902F900895E1E8F5E29491ED
:104510009D8397FDDECF61E08FE10E9408B88D8119
:10452000882321F09D81923009F0BDC14801B12C52
:10453000A12C60E072E18AE790E0A50198010E9459
:1045400005DD29833A834B835C8369017A0121E08D
:10455000C21AD108E108F1088FEFC816D104E104AE
:10456000F10409F00CF46FC160E472E48FE090E0B4
:10457000A50198010E9405DD69017A0191E0C91A3F
:10458000D108E108F1082D81223009F010C18FEF28
:10459000C816D104E104F10409F00CF4C0C260E9CA
:1045A00070ED83E090E0A50198010E9405DD6901AE
:1045B0007A0191E0C91AD108E108F10883E02FEFF0
:1045C000C216D104E104F10409F00CF4A1C268E4BC
:1045D00078EE81E090E0A50198010E9405DD690177
:1045E0007A0181E0C81AD108E108F1089FEFC916E5
:1045F000D104E104F10411F00CF0FDC084E088C2A4
:104600008FE180934802E1E8F5E224912D83822F27
:104610002F3F09F45ECF223009F469C060F42223F1
:1046200081F1213009F445C087FD53CF61E08FE16E
:104630000E9408B877CF9D81943009F49AC008F49D
:1046400078C0953089F71092200110922101809155
:1046500021018860809321018091210181608093F4
:104660002101EEECF4E2E491F0E0EE0FFF1FE558DB
:10467000FB4D85919491E4E1F5E2E491E0935904D6
:104680004ACF14BC15BC84B5826084BD85B58160F9
:1046900085BDEEECF4E2E491F0E0EE0FFF1FE5588B
:1046A000FB4D85919491E4E1F5E2E491E0935D04A2
:1046B00032CF10928000109281008091810088603A
:1046C0008093810080918100816080938100EEEC75
:1046D000F4E2E491F0E0EE0FFF1FE558FB4D859109
:1046E0009491E4E1F5E2E491E0935C0414CF10923C
:1046F000B0001092B1008091B00082608093B00051
:104700008091B10081608093B100EEECF4E2E4911D
:10471000F0E0EE0FFF1FE558FB4D859194919093CB
:104720006E0680936D06E4E1F5E2E491E0936F0696
:10473000F2CE1092900010929100809191008860CA
:104740008093910080919100816080939100EEECC4
:10475000F4E2E491F0E0EE0FFF1FE558FB4D859188
:104760009491E4E1F5E2E491E0935B0423E02D838E
:10477000D2CE1092A0001092A1008091A10088607A
:104780008093A1008091A10081608093A100EEEC54
:10479000F4E2E491F0E0EE0FFF1FE558FB4D859148
:1047A0009491E4E1F5E2E491E0935A04B4CE8FEF02
:1047B000C816D104E104F10409F00CF472C068E4F5
:1047C00078EE81E090E0A50198010E9405DD690185
:1047D0007A0191E0C91AD108E108F1082D8122235C
:1047E00009F462C12FEFC216D104E104F10411F003
:1047F0000CF063C103CF64E274EF80E090E0A501A8
:1048000094010E9405DD69017A0181E0C81AD1088E
:10481000E108F10885E09FEFC916D104E104F10435
:1048200009F008F475C162E17AE780E090E0A50143
:1048300094010E9405DD69017A0181E0C81AD1085E
:10484000E108F1084CC181E02D81211161C195B5CC
:10485000987F892B85BD2FEF3FEFA901452846287A
:10486000472809F048C09D81923009F4E2C00CF05D
:10487000C9C0992309F4CEC0913009F02ACED09254
:104880008900C092880020936A0430936B0440939F
:104890006C0450936D0480916F00826080936F0070
:1048A00018CE82E0D1CFB12CA12C60E072E18AE772
:1048B00090E0A50198010E9405DD69017A0181E07F
:1048C000C81AD108E108F108C114D10491E0E90641
:1048D000F104F4F491E02D81213059F580918100AB
:1048E000887F892B809381002FEF3FEFA901452816
:1048F0004628472821F29801220F331FD1010E9438
:104900002FDD28EE33E040E050E00E94E3DCABCF47
:1049100068E478EE81E090E0A50198010E9405DD51
:1049200069017A0181E0C81AD108E108F10893E031
:10493000D2CF8D818330F9F480919100887F892BCB
:10494000809391002FEF3FEFA90145284628472883
:1049500091F6D0929900C09298002093660430930B
:1049600067044093680450936904809171008260E9
:1049700080937100AECD2D81243001F58091A1008E
:10498000887F892B8093A1002FEF3FEFA901452855
:104990004628472809F0AFCFD092A900C092A800BE
:1049A000209362043093630440936404509365043D
:1049B000809172008260809372008BCD8D818530F2
:1049C00009F049CF80912101887F892B80932101B3
:1049D0002FEF3FEFA90145284628472809F08BCF44
:1049E000D0922901C092280120935E0430935F0485
:1049F00040936004509361048091730082608093BF
:104A0000730067CD8D81843039F20CF4A2CF8530EC
:104A100039F35FCDC7BC20936E0430936F0440938D
:104A200070045093710480916E00826080936E00D8
:104A300050CDC092B300209370063093710640931E
:104A400072065093730680917000826080937000AC
:104A500040CD601B710B820B930B97FD3DCD4698AB
:104A60001092C7141092C8141092C9141092CA144C
:104A700033CDC980DA80EB80FC809AE0F594E7942E
:104A8000D794C7949A95D1F721E0C21AD108E108CA
:104A9000F10885E0DCCE8FEFC816D104E104F10403
:104AA00009F038F784E0D3CE83E09FEFC916D10434
:104AB000E104F10409F00CF4CACE62E17AE780E087
:104AC00090E0A50194010E9405DD69017A0181E071
:104AD000C81AD108E108F1089D819923E1F286E026
:104AE0002FEFC216D104E104F10491F088F0C980DF
:104AF000DA80EB80FC808AE0F594E794D794C79441
:104B00008A95D1F791E0C91AD108E108F10887E048
:104B10009091B100987F892B8093B1009CCE82E068
:104B2000F7CFCF92DF92EF92FF920F931F93CF9325
:104B3000DF93CDB7DEB77C01CDB6DEB60E943DD89F
:104B400001962DB73EB7281B390B0FB6F8943EBF20
:104B50000FBE2DBF0DB71EB70F5F1F4FB701C801A6
:104B60000E9436D8C8010E941EB60FB6F894DEBE69
:104B70000FBECDBEDF91CF911F910F91FF90EF90AF
:104B8000DF90CF9008952F923F924F925F926F9255
:104B90007F928F929F92AF92BF92CF92DF92EF92CD
:104BA000FF920F931F93CF93DF93D62FC72FFC0154
:104BB00080809180A280B380C501B40120E831E5F6
:104BC00041E050E00E94E3DCC9016DE671E00E9423
:104BD0005ADF6B017C01C501B40120E13EE040E0F9
:104BE00050E00E94E3DCCA01B90128E130E040E076
:104BF00050E00E94E3DC362E272E062F172F8CE381
:104C0000482E512C612C712CC501B401A3019201D5
:104C10000E94E3DCB62EA72ECA01B901A3019201BE
:104C20000E94E3DCCB01C114D10479F1AF92BF92B1
:104C30007F936F932F923F92FF92EF92DF92CF92EA
:104C400082E59FE09F938F93CF93DF930E9487D855
:104C50008DB79EB70E960FB6F8949EBF0FBE8DBF50
:104C60008D2F9C2FDF91CF911F910F91FF90EF908F
:104C7000DF90CF90BF90AF909F908F907F906F907C
:104C80005F904F903F902F900895E114F104C9F088
:104C9000AF92BF927F936F932F923F92FF92EF92CA
:104CA00082E49FE09F938F93CF93DF930E9487D8F6
:104CB000EDB7FEB73C960FB6F894FEBF0FBEEDBF42
:104CC000CFCF012BB9F0AF92BF927F936F932F920A
:104CD0003F9286E39FE09F938F93CF93DF930E9451
:104CE00087D88DB79EB70A960FB6F8949EBF0FBEB1
:104CF0008DBFB6CF892BA9F0AF92BF927F936F93F0
:104D00008EE29FE09F938F93CF93DF930E9487D88B
:104D1000EDB7FEB738960FB6F894FEBF0FBEEDBFE5
:104D20009FCFAF92BF928AE29FE09F938F93CF93E2
:104D3000DF930E9487D80F900F900F900F900F90E5
:104D40000F908ECF8091170490911804009731F046
:104D50004AE050E070E060E00C940DD760E070E055
:104D6000CB0108958091170490911804009731F0B9
:104D70004AE050E070E060E00C94DFD560E070E065
:104D8000CB0108950E94B226CB0108950F931F9383
:104D9000CF9380911704909118040097E9F0FC01DB
:104DA0008F01C1912C2F2F7D81F0C53411F0C536B4
:104DB000B9F7F801108270E060E00E9481D4F80138
:104DC000C083CF911F910F91089570E060E0CF9163
:104DD0001F910F910C9481D460E070E0CB01F1CF72
:104DE0000F931F93CF93DF93FC012381222331F094
:104DF00080E0DF91CF911F910F9108958B01EC011D
:104E0000FB018789803139F582E08B831D8A1E8AF8
:104E10001F8A188E808D918DB0E0A0E025E0880F6C
:104E2000991FAA1FBB1F2A95D1F7898B9A8BAB8B31
:104E3000BC8B1A8F098F81E08983188619861A86A0
:104E40001B861C821D821E821F82188A1C861D865C
:104E50001E861F86CECF803259F683E08B83428D2B
:104E6000538D648D758D4D8B5E8B6F8B788F9E010E
:104E70002F5E3F4FC8010E9406CA8111DACFB8CF1A
:104E8000CF93DF93EC010E9470CA1B82DF91CF9118
:104E90000895CF93DF93EC01462F41706C857D859B
:104EA0008E859F850E942DC6882351F0888920E237
:104EB000829FC0011124815A9D4EDF91CF910895A8
:104EC00090E080E0FACFCF93DF93EB01FC012381E8
:104ED000211104C080E0DF91CF910895225022304B
:104EE00028F48FE28883198281E0F5CF60E00E9488
:104EF0004927009779F3DC0160E080E09EE22D9184
:104F0000203299F0883031F49E01260F311DF901CD
:104F100090836F5F9E01260F311DAD0141505109F5
:104F2000FA014081F90140836F5F8F5F8B3039F761
:104F3000FE01E60FF11D1082D7CF3F924F925F9294
:104F40006F927F928F929F92AF92BF92CF92DF9299
:104F5000EF92FF920F931F93CF93DF93CDB7DEB7FE
:104F60002C970FB6F894DEBF0FBECDBF5C01DC01FD
:104F700059968D909C90F40181859285A385B48586
:104F80009C01AD012F5F3F4F4F4F5F4F29873A87FD
:104F90004B875C87D50114964D905D906D907C9009
:104FA0001797411451046104710409F459C0BFEF0B
:104FB0004B1A5B0A6B0A7B0A312C730162011D825A
:104FC0001E821F821886F40181859285A385B4858F
:104FD0002D813E814F815885281739074A075B0785
:104FE00008F056C089859A85AB85BC858C159D05D2
:104FF000AE05BF0550F482E0C82ED12CE12CF12C77
:1050000092E0492E512C612C712C9E012F5F3F4F55
:10501000B701A601C4010E9483C98823C9F189810F
:105020009A81AB81BC81892B8A2B8B2B01F12601C4
:1050300037019FEF491A590A690A790A2D813E8181
:105040004F8158852F5F3F4F4F4F5F4F2D833E83DA
:105050004F8358873FEFC31AD30AE30AF30AB3CF4B
:10506000408051806280738033243394A6CFC4146F
:10507000D504E604F70411F70FEF1FEF2FEF3FE021
:10508000B701A601C4010E94F1C8782E81111AC08F
:10509000712C872D2C960FB6F894DEBF0FBECDBFB6
:1050A000DF91CF911F910F91FF90EF90DF90CF9004
:1050B000BF90AF909F908F907F906F905F904F9038
:1050C0003F900895F50144815581668177814115AE
:1050D00051056105710539F097018601C4010E94EF
:1050E000F1C88823A9F2D5011496CD92DD92ED92F4
:1050F000FC921797332051F0D701C6010196A11DEC
:10510000B11DF40180839183A283B383F501858966
:105110009689A789B08D892B8A2B8B2B09F0B9CF63
:10512000C58AD68AE78AF08E818180688183B1CF73
:1051300040E050E0BA010C94BFCAFC012381211168
:105140000C94402708950F930FB70F9300916E00B2
:105150000B7F00936E0078940F930BB70F930CB7EF
:105160000F921F922F933F934F935F936F937F9371
:105170008F939F93AF93BF93EF93FF9311240E945C
:105180003448FF91EF91BF91AF919F918F917F91A3
:105190006F915F914F913F912F911F900F900CBF96
:1051A0000F910BBF0F910460F89400936E000F9164
:1051B0000FBF0F911895CF93DF93C0912E12D0910E
:1051C0002F12209729F160912A1270912B12809151
:1051D0002C1290912D120E9434DE6E5F7F4F249727
:1051E0006C177D07ACF47093D7056093D6050E94C9
:1051F0004EB9605A75418F4F9F4F6093D805709399
:10520000D9058093DA059093DB05DF91CF9108955E
:105210001092D8051092D9051092DA051092DB058C
:10522000F4CF1092FF0580915102909152020F9796
:105230001816190614F490E080E0909351128093B0
:1052400050120E947CB9109252122C9810922F1278
:1052500010922E120E94DB281092301280910201CF
:1052600080728093000108958F929F92AF92BF92B7
:10527000CF92DF92EF92FF920F931F93CF93DF9322
:10528000B0E4A0E06A2F70E0AB014B0F511D5595C3
:105290004795411119C0E0EAF1E265917491072E3A
:1052A000000C880B990B0E94F7D8DF91CF911F91CA
:1052B0000F91FF90EF90DF90CF90BF90AF909F90B5
:1052C0008F900895B42FE0CFA41711F0B41303C04A
:1052D000ECE9F2E2E2CF9A0121503109220F331FAB
:1052E000220F331FF901E256FE4DE590F490F901CB
:1052F000EE55FE4DC591D4918E159F051CF3A42F3C
:10530000C817D9070CF4BECFF901E056FE4D059140
:105310001491F901EC55FE4DC590D490BC016E1965
:105320007F09072E000C880B990B0E94F7D84B01C0
:105330005C01B601601B710B072E000C880B990BEA
:105340000E94F7D89B01AC01C501B4010E9456D957
:105350004B015C01BE016E197F09072E000C880B02
:10536000990B0E94F7D89B01AC01C501B4010E94C2
:10537000C2DD6B017C01B801110F880B990B0E94F3
:10538000F7D89B01AC01C701B6010E943FDD8DCF6C
:10539000CF93DF93C8E4D2E18A819B810E94F29F80
:1053A0006C837D838E839F83C6E2D2E18A819B8159
:1053B0000E9434296C837D838E839F83A8951092ED
:1053C000E905DF91CF910895BC0120917E053091D0
:1053D0007F0540917E0550917F052417350731F4F4
:1053E00081E02617370709F080E008959A01F1CF90
:1053F0000F930FB70F9300916E000F930B7F0093E5
:105400006E0000916F000D7F00936F000F930BB73C
:105410000F930CB70F921F922F933F934F935F936D
:105420006F937F938F939F93AF93BF93EF93FF936C
:1054300011240E942A2EFF91EF91BF91AF919F916D
:105440008F917F916F915F914F913F912F911F901D
:105450000F900CBF0F910BBF0F910260F894009357
:105460006F000F9100936E000F910FBF0F91189571
:1054700080918B0680FF1DC0899A8FEF8093EC0589
:1054800080918B06869580FF17C08F988FEF809351
:10549000ED0580918B068695869580FF10C08091E2
:1054A0000B0182708093090143988FEF8093EE0582
:1054B0000895899881E0E2CF8F9A81E0E8CF8091CA
:1054C0000B018095827080930901439A81E0EECFB1
:1054D00020915102309152022F50310982179307C7
:1054E0000CF49C0130935112209350120C947CB90F
:1054F0000F931F93CF93DF9300D01F92CDB7DEB7EA
:10550000209145102223E1F08C0108960E94D01EC4
:1055100069837A838B839C83BE016F5F7F4FC80151
:105520000E94551D9B01AC01F80160857185828543
:1055300093850E943FDDF80160877187828793879A
:105540000F900F900F900F90DF91CF911F910F91BF
:1055500008952F923F924F925F926F927F928F9217
:105560009F92AF92BF92CF92DF92EF92FF920F93F2
:105570001F93CF93DF93CDB7DEB76C970FB6F89438
:10558000DEBF0FBECDBF8C015B015A834983FC0196
:10559000EF5AFF4F208131814281538129873A8719
:1055A0004B875C87CA01B9010E94F5D86B017C0169
:1055B000D5012D913D914D915C910E9456D90E944B
:1055C000ABDD2B013C01E981FA81208131814281EF
:1055D0005381C701B6010E9456D90E94ABDD4B0131
:1055E0005C01C301B2010E943BDE698B7A8B8B8B1D
:1055F0009C8B683771058105910540F428E730E000
:1056000040E050E0298B3A8B4B8B5C8BC501B40199
:105610000E943BDE6D877E878F87988B6837710588
:105620008105910540F448E750E060E070E04D8767
:105630005E876F87788BF801E35AFF4F4080518077
:1056400062807380C301B2010E94F7D869837A83B4
:105650008B839C8369897A898B899C890E94F5D880
:105660006D8B7E8B8F8B988F20E030E0A901698154
:105670007A818B819C810E94F0D8882309F4E1C152
:10568000A7019601C701B6010E9456D94B015C01E2
:105690002D893E894F89588DCA01B9010E9456D97A
:1056A0009B01AC01C501B4010E943EDD4B015C01D0
:1056B00029813A814B815C81CA01B9010E943FDD99
:1056C0009B01AC01C501B4010E94C2DD0E94ABDDAB
:1056D0000E943BDE6D837E838F83988766277727C2
:1056E000CB0164197509860997090E94F7D84B0107
:1056F0005C016D857E858F8598890E94F5D82B0188
:105700003C0120E030E0A901C501B4010E94F0D8BD
:10571000882309F49AC1A3019201C301B2010E9436
:1057200056D9698F7A8F8B8F9C8FA7019601C701FD
:10573000B6010E9456D99B01AC01698D7A8D8B8D83
:105740009C8D0E943EDD6B017C01A5019401C50189
:10575000B4010E943FDD9B01AC01C701B6010E946C
:10576000C2DD0E946ADED80195968D909D90AD9025
:10577000BC909897750164012D813E814F815885B9
:10578000C21AD30AE40AF50A0E943BDEC61AD70AF7
:10579000E80AF90AF7FE8EC02D893E894F89588D97
:1057A000CA01B9010E9456D96B017C0129813A8155
:1057B0004B815C81CA01B9010E943FDD69877A870C
:1057C0008B879C8720E030E0A90169817A818B81F9
:1057D0009C810E94F0D8882309F43BC1C501B40123
:1057E0000E94F5D829853A854B855C850E9456D95B
:1057F000A70196010E943EDD6D837E838F8398878B
:10580000A3019201C301B2010E9456D99B01AC01D0
:105810006D817E818F8198850E943FDD2B013C0147
:1058200020E030E040E850E469817A818B819C81FE
:105830000E9456D99B01AC01C301B2010E94C2DD96
:105840000E94ABDD2B013C0120E030E0A9010E9469
:10585000C2DE18161CF0412C512C3201C301B201DA
:105860000E943BDE6D837E838F8398878616970622
:10587000A806B90620F48D829E82AF82B8866D811B
:105880007E818F8198850E94F5D829853A854B8540
:105890005C850E9456D9A70196010E943FDD0E94B7
:1058A00000DF0E943BDE69877A878B879C87C12C4B
:1058B000D12C760169857A858B859C8529893A89E1
:1058C0004B895C89621B730B840B950B0E94F5D886
:1058D00029813A814B815C810E94C2DD20E034E263
:1058E00044EF59E40E9456D90E943BDE4B015C0113
:1058F00069857A858B859C852D853E854F85588960
:10590000621B730B840B950B0E94F5D829813A8199
:105910004B815C810E94C2DD20E034E244EF59E417
:105920000E9456D90E943BDE2B013C013FE68316C4
:105930009104A104B10408F090C0F401EE0FFF1F20
:10594000EE0FFF1FE55CFD4E85919591A591B491F9
:105950008983292E3A2EBD8B4FE6441651046104EB
:10596000710408F083C0F201EE0FFF1FEE0FFF1F5E
:10597000E55CFD4E45915591659174919A01CB017D
:105980004D815E816F817885D80199964D935D93A5
:105990006D937C939C974C0D5D1D6E1D7F1DF801D2
:1059A00045A756A767A770ABEB5AFF4F49895A899D
:1059B0006B897C894083518362837383D5968D92F2
:1059C0009D92AD92BC92D897F80141AE52AE63AEB3
:1059D00074AEFD9649814083218232825D89538372
:1059E0003496208331838283938369857A858B857E
:1059F0009C85D1966D937D938D939C93D497789647
:105A00002D853E854F85588920833183428353837A
:105A10006C960FB6F894DEBF0FBECDBFDF91CF916D
:105A20001F910F91FF90EF90DF90CF90BF90AF90BC
:105A30009F908F907F906F905F904F903F902F90AE
:105A4000089560E070E0CB0141CE60E070E0CB01F2
:105A500088CE60E070E0CB01F3CEC501B4010E94B6
:105A6000BB1B6983272E382E9D8B76CFC301B201D5
:105A70000E94BB1B9B0184CFEFE6F0E08081826037
:105A800080830895CF93C82F0E94C31E94E0C99FBE
:105A900090011124F901EF57FA4F23573A4FD901DA
:105AA0004D915D916D917C914083518362837383AD
:105AB00091E090938005882319F0CF910C943C2DB0
:105AC000CF910895CF92DF92EF92FF92809175046B
:105AD000909176046599A2C081609093760480933A
